{
  "contractName": "Adoption",
  "abi": [
    {
      "inputs": [
        {
          "internalType": "address",
          "name": "_petRegistryAddress",
          "type": "address"
        }
      ],
      "stateMutability": "nonpayable",
      "type": "constructor"
    },
    {
      "anonymous": false,
      "inputs": [
        {
          "indexed": false,
          "internalType": "uint256",
          "name": "id",
          "type": "uint256"
        },
        {
          "indexed": false,
          "internalType": "address",
          "name": "adopter",
          "type": "address"
        }
      ],
      "name": "PetAdopted",
      "type": "event"
    },
    {
      "inputs": [
        {
          "internalType": "uint256",
          "name": "",
          "type": "uint256"
        }
      ],
      "name": "adopters",
      "outputs": [
        {
          "internalType": "address",
          "name": "",
          "type": "address"
        }
      ],
      "stateMutability": "view",
      "type": "function"
    },
    {
      "inputs": [],
      "name": "petRegistry",
      "outputs": [
        {
          "internalType": "contract Registration",
          "name": "",
          "type": "address"
        }
      ],
      "stateMutability": "view",
      "type": "function"
    },
    {
      "inputs": [
        {
          "internalType": "uint256",
          "name": "petId",
          "type": "uint256"
        }
      ],
      "name": "adopt",
      "outputs": [],
      "stateMutability": "payable",
      "type": "function"
    },
    {
      "inputs": [
        {
          "internalType": "uint256",
          "name": "petId",
          "type": "uint256"
        }
      ],
      "name": "getAdopter",
      "outputs": [
        {
          "internalType": "address",
          "name": "",
          "type": "address"
        }
      ],
      "stateMutability": "view",
      "type": "function"
    }
  ],
  "bytecode": "0x608060405234801561000f575f80fd5b50604051610aee380380610aee833981810160405281019061003191906100d4565b805f806101000a81548173ffffffffffffffffffffffffffffffffffffffff021916908373ffffffffffffffffffffffffffffffffffffffff160217905550506100ff565b5f80fd5b5f73ffffffffffffffffffffffffffffffffffffffff82169050919050565b5f6100a38261007a565b9050919050565b6100b381610099565b81146100bd575f80fd5b50565b5f815190506100ce816100aa565b92915050565b5f602082840312156100e9576100e8610076565b5b5f6100f6848285016100c0565b91505092915050565b6109e28061010c5f395ff3fe60806040526004361061003e575f3560e01c806343ae80d3146100425780638588b2c51461007e578063a73382971461009a578063e97db606146100d6575b5f80fd5b34801561004d575f80fd5b5061006860048036038101906100639190610467565b610100565b60405161007591906104d1565b60405180910390f35b61009860048036038101906100939190610467565b610130565b005b3480156100a5575f80fd5b506100c060048036038101906100bb9190610467565b6103c7565b6040516100cd91906104d1565b60405180910390f35b3480156100e1575f80fd5b506100ea610400565b6040516100f79190610545565b60405180910390f35b6001602052805f5260405f205f915054906101000a900473ffffffffffffffffffffffffffffffffffffffff1681565b5f3411610172576040517f08c379a0000000000000000000000000000000000000000000000000000000008152600401610169906105b8565b60405180910390fd5b5f805f9054906101000a900473ffffffffffffffffffffffffffffffffffffffff1673ffffffffffffffffffffffffffffffffffffffff166359d55194836040518263ffffffff1660e01b81526004016101cc91906105e5565b5f60405180830381865afa1580156101e6573d5f803e3d5ffd5b505050506040513d5f823e3d601f19601f8201168201806040525081019061020e919061086e565b90505f815f015103610255576040517f08c379a000000000000000000000000000000000000000000000000000000000815260040161024c906108ff565b60405180910390fd5b5f73ffffffffffffffffffffffffffffffffffffffff1660015f8481526020019081526020015f205f9054906101000a900473ffffffffffffffffffffffffffffffffffffffff1673ffffffffffffffffffffffffffffffffffffffff16146102f3576040517f08c379a00000000000000000000000000000000000000000000000000000000081526004016102ea90610967565b60405180910390fd5b806080015173ffffffffffffffffffffffffffffffffffffffff166108fc3490811502906040515f60405180830381858888f1935050505015801561033a573d5f803e3d5ffd5b503360015f8481526020019081526020015f205f6101000a81548173ffffffffffffffffffffffffffffffffffffffff021916908373ffffffffffffffffffffffffffffffffffffffff1602179055507faa2d40dd3b943f6c2f61c88fa64ea4eb2b19ea7399bdf0f1351ef2ce22ff9db082336040516103bb929190610985565b60405180910390a15050565b5f60015f8381526020019081526020015f205f9054906101000a900473ffffffffffffffffffffffffffffffffffffffff169050919050565b5f8054906101000a900473ffffffffffffffffffffffffffffffffffffffff1681565b5f604051905090565b5f80fd5b5f80fd5b5f819050919050565b61044681610434565b8114610450575f80fd5b50565b5f813590506104618161043d565b92915050565b5f6020828403121561047c5761047b61042c565b5b5f61048984828501610453565b91505092915050565b5f73ffffffffffffffffffffffffffffffffffffffff82169050919050565b5f6104bb82610492565b9050919050565b6104cb816104b1565b82525050565b5f6020820190506104e45f8301846104c2565b92915050565b5f819050919050565b5f61050d61050861050384610492565b6104ea565b610492565b9050919050565b5f61051e826104f3565b9050919050565b5f61052f82610514565b9050919050565b61053f81610525565b82525050565b5f6020820190506105585f830184610536565b92915050565b5f82825260208201905092915050565b7f41646f7074696f6e2066656520697320726571756972656400000000000000005f82015250565b5f6105a260188361055e565b91506105ad8261056e565b602082019050919050565b5f6020820190508181035f8301526105cf81610596565b9050919050565b6105df81610434565b82525050565b5f6020820190506105f85f8301846105d6565b92915050565b5f80fd5b5f601f19601f8301169050919050565b7f4e487b71000000000000000000000000000000000000000000000000000000005f52604160045260245ffd5b61064882610602565b810181811067ffffffffffffffff8211171561066757610666610612565b5b80604052505050565b5f610679610423565b9050610685828261063f565b919050565b5f80fd5b5f8151905061069c8161043d565b92915050565b5f80fd5b5f80fd5b5f67ffffffffffffffff8211156106c4576106c3610612565b5b6106cd82610602565b9050602081019050919050565b8281835e5f83830152505050565b5f6106fa6106f5846106aa565b610670565b905082815260208101848484011115610716576107156106a6565b5b6107218482856106da565b509392505050565b5f82601f83011261073d5761073c6106a2565b5b815161074d8482602086016106e8565b91505092915050565b5f61076082610492565b9050919050565b61077081610756565b811461077a575f80fd5b50565b5f8151905061078b81610767565b92915050565b5f60a082840312156107a6576107a56105fe565b5b6107b060a0610670565b90505f6107bf8482850161068e565b5f83015250602082015167ffffffffffffffff8111156107e2576107e161068a565b5b6107ee84828501610729565b602083015250604082015167ffffffffffffffff8111156108125761081161068a565b5b61081e84828501610729565b604083015250606082015167ffffffffffffffff8111156108425761084161068a565b5b61084e84828501610729565b60608301525060806108628482850161077d565b60808301525092915050565b5f602082840312156108835761088261042c565b5b5f82015167ffffffffffffffff8111156108a05761089f610430565b5b6108ac84828501610791565b91505092915050565b7f506574206e6f7420666f756e64000000000000000000000000000000000000005f82015250565b5f6108e9600d8361055e565b91506108f4826108b5565b602082019050919050565b5f6020820190508181035f830152610916816108dd565b9050919050565b7f50657420616c72656164792061646f70746564000000000000000000000000005f82015250565b5f61095160138361055e565b915061095c8261091d565b602082019050919050565b5f6020820190508181035f83015261097e81610945565b9050919050565b5f6040820190506109985f8301856105d6565b6109a560208301846104c2565b939250505056fea2646970667358221220ff43bb47ea10dbfd3e60a0439e14786e349135845ce78216b689efa8d30cb37e64736f6c634300081a0033",
  "immutableReferences": {},
  "source": "// SPDX-License-Identifier: MIT\r\npragma solidity ^0.8.0;\r\n\r\nimport \"./Registration.sol\";\r\n\r\ncontract Adoption {\r\n    Registration public petRegistry;\r\n\r\n    mapping(uint => address) public adopters;\r\n\r\n    event PetAdopted(uint id, address adopter);\r\n\r\n    constructor(address _petRegistryAddress) {\r\n        petRegistry = Registration(_petRegistryAddress);\r\n    }\r\n\r\n    function adopt(uint petId) public payable {\r\n        require(msg.value > 0, \"Adoption fee is required\");\r\n\r\n        Registration.Pet memory pet = petRegistry.getPet(petId);\r\n        require(pet.id != 0, \"Pet not found\");\r\n        require(adopters[petId] == address(0), \"Pet already adopted\");\r\n\r\n        // Transfer the adoption fee to the pet owner\r\n        pet.owner.transfer(msg.value);\r\n\r\n        // Mark the pet as adopted\r\n        adopters[petId] = msg.sender;\r\n\r\n        emit PetAdopted(petId, msg.sender);\r\n    }\r\n\r\n    function getAdopter(uint petId) public view returns (address) {\r\n        return adopters[petId];\r\n    }\r\n}\r\n",
  "sourcePath": "C:\\Users\\ch243\\Desktop\\pet-shop-box-master\\contracts\\Adoption.sol",
  "compiler": {
    "name": "solc",
    "version": "0.8.26+commit.8a97fa7a.Emscripten.clang"
  },
  "schemaVersion": "3.4.16",
  "updatedAt": "2024-08-13T08:41:22.689Z",
  "devdoc": {
    "kind": "dev",
    "methods": {},
    "version": 1
  },
  "userdoc": {
    "kind": "user",
    "methods": {},
    "version": 1
  }
}