{
  "contractName": "Registration",
  "abi": [
    {
      "anonymous": false,
      "inputs": [
        {
          "indexed": false,
          "internalType": "uint256",
          "name": "id",
          "type": "uint256"
        },
        {
          "indexed": false,
          "internalType": "string",
          "name": "name",
          "type": "string"
        },
        {
          "indexed": false,
          "internalType": "string",
          "name": "photoUrl",
          "type": "string"
        },
        {
          "indexed": false,
          "internalType": "uint256",
          "name": "registrationFee",
          "type": "uint256"
        },
        {
          "indexed": false,
          "internalType": "address",
          "name": "owner",
          "type": "address"
        }
      ],
      "name": "PetRegistered",
      "type": "event"
    },
    {
      "constant": true,
      "inputs": [],
      "name": "petCount",
      "outputs": [
        {
          "internalType": "uint256",
          "name": "",
          "type": "uint256"
        }
      ],
      "payable": false,
      "stateMutability": "view",
      "type": "function"
    },
    {
      "constant": true,
      "inputs": [
        {
          "internalType": "uint256",
          "name": "",
          "type": "uint256"
        }
      ],
      "name": "petToOwner",
      "outputs": [
        {
          "internalType": "address",
          "name": "",
          "type": "address"
        }
      ],
      "payable": false,
      "stateMutability": "view",
      "type": "function"
    },
    {
      "constant": true,
      "inputs": [
        {
          "internalType": "uint256",
          "name": "",
          "type": "uint256"
        }
      ],
      "name": "pets",
      "outputs": [
        {
          "internalType": "uint256",
          "name": "id",
          "type": "uint256"
        },
        {
          "internalType": "string",
          "name": "name",
          "type": "string"
        },
        {
          "internalType": "string",
          "name": "photoUrl",
          "type": "string"
        },
        {
          "internalType": "address",
          "name": "owner",
          "type": "address"
        },
        {
          "internalType": "uint256",
          "name": "registrationFee",
          "type": "uint256"
        }
      ],
      "payable": false,
      "stateMutability": "view",
      "type": "function"
    },
    {
      "constant": false,
      "inputs": [
        {
          "internalType": "string",
          "name": "_name",
          "type": "string"
        },
        {
          "internalType": "string",
          "name": "_photoUrl",
          "type": "string"
        },
        {
          "internalType": "uint256",
          "name": "_registrationFee",
          "type": "uint256"
        }
      ],
      "name": "registerPet",
      "outputs": [],
      "payable": false,
      "stateMutability": "nonpayable",
      "type": "function"
    },
    {
      "constant": true,
      "inputs": [],
      "name": "getPets",
      "outputs": [
        {
          "components": [
            {
              "internalType": "uint256",
              "name": "id",
              "type": "uint256"
            },
            {
              "internalType": "string",
              "name": "name",
              "type": "string"
            },
            {
              "internalType": "string",
              "name": "photoUrl",
              "type": "string"
            },
            {
              "internalType": "address",
              "name": "owner",
              "type": "address"
            },
            {
              "internalType": "uint256",
              "name": "registrationFee",
              "type": "uint256"
            }
          ],
          "internalType": "struct Registration.Pet[]",
          "name": "",
          "type": "tuple[]"
        }
      ],
      "payable": false,
      "stateMutability": "view",
      "type": "function"
    }
  ],
  "bytecode": "0x6080604052600060025534801561001557600080fd5b50610d56806100256000396000f3fe608060405234801561001057600080fd5b50600436106100575760003560e01c80636d71ad381461005c578063c64310431461007a578063cd619f58146100aa578063cfb869bf146100c8578063d345be2d146100fc575b600080fd5b610064610118565b6040516100719190610a6e565b60405180910390f35b610094600480360361008f919081019061082e565b610325565b6040516100a19190610a53565b60405180910390f35b6100b2610358565b6040516100bf9190610a90565b60405180910390f35b6100e260048036036100dd919081019061082e565b61035e565b6040516100f3959493929190610b0c565b60405180910390f35b610116600480360361011191908101906107af565b6104f1565b005b60606000805480602002602001604051908101604052809291908181526020016000905b8282101561031c57838290600052602060002090600502016040518060a001604052908160008201548152602001600182018054600181600116156101000203166002900480601f0160208091040260200160405190810160405280929190818152602001828054600181600116156101000203166002900480156102025780601f106101d757610100808354040283529160200191610202565b820191906000526020600020905b8154815290600101906020018083116101e557829003601f168201915b50505050508152602001600282018054600181600116156101000203166002900480601f0160208091040260200160405190810160405280929190818152602001828054600181600116156101000203166002900480156102a45780601f10610279576101008083540402835291602001916102a4565b820191906000526020600020905b81548152906001019060200180831161028757829003601f168201915b505050505081526020016003820160009054906101000a900473ffffffffffffffffffffffffffffffffffffffff1673ffffffffffffffffffffffffffffffffffffffff1673ffffffffffffffffffffffffffffffffffffffff1681526020016004820154815250508152602001906001019061013c565b50505050905090565b60016020528060005260406000206000915054906101000a900473ffffffffffffffffffffffffffffffffffffffff1681565b60025481565b6000818154811061036b57fe5b9060005260206000209060050201600091509050806000015490806001018054600181600116156101000203166002900480601f01602080910402602001604051908101604052809291908181526020018280546001816001161561010002031660029004801561041d5780601f106103f25761010080835404028352916020019161041d565b820191906000526020600020905b81548152906001019060200180831161040057829003601f168201915b505050505090806002018054600181600116156101000203166002900480601f0160208091040260200160405190810160405280929190818152602001828054600181600116156101000203166002900480156104bb5780601f10610490576101008083540402835291602001916104bb565b820191906000526020600020905b81548152906001019060200180831161049e57829003601f168201915b5050505050908060030160009054906101000a900473ffffffffffffffffffffffffffffffffffffffff16908060040154905085565b60006040518060a0016040528060025481526020018581526020018481526020013373ffffffffffffffffffffffffffffffffffffffff16815260200183815250908060018154018082558091505090600182039060005260206000209060050201600090919290919091506000820151816000015560208201518160010190805190602001906105839291906106a1565b5060408201518160020190805190602001906105a09291906106a1565b5060608201518160030160006101000a81548173ffffffffffffffffffffffffffffffffffffffff021916908373ffffffffffffffffffffffffffffffffffffffff160217905550608082015181600401555050503360016000600254815260200190815260200160002060006101000a81548173ffffffffffffffffffffffffffffffffffffffff021916908373ffffffffffffffffffffffffffffffffffffffff1602179055507f96b65fccaef0a07a8123b25d5b76c744b9d73cccad9e6c1a07a6d97666ac8e0b60025484848433604051610682959493929190610aab565b60405180910390a1600260008154809291906001019190505550505050565b828054600181600116156101000203166002900490600052602060002090601f016020900481019282601f106106e257805160ff1916838001178555610710565b82800160010185558215610710579182015b8281111561070f5782518255916020019190600101906106f4565b5b50905061071d9190610721565b5090565b61074391905b8082111561073f576000816000905550600101610727565b5090565b90565b600082601f83011261075757600080fd5b813561076a61076582610b9a565b610b6d565b9150808252602083016020830185838301111561078657600080fd5b610791838284610ca9565b50505092915050565b6000813590506107a981610cfc565b92915050565b6000806000606084860312156107c457600080fd5b600084013567ffffffffffffffff8111156107de57600080fd5b6107ea86828701610746565b935050602084013567ffffffffffffffff81111561080757600080fd5b61081386828701610746565b92505060406108248682870161079a565b9150509250925092565b60006020828403121561084057600080fd5b600061084e8482850161079a565b91505092915050565b600061086383836109b8565b905092915050565b61087481610c73565b82525050565b61088381610c37565b82525050565b61089281610c37565b82525050565b60006108a382610bd6565b6108ad8185610c04565b9350836020820285016108bf85610bc6565b8060005b858110156108fb57848403895281516108dc8582610857565b94506108e783610bf7565b925060208a019950506001810190506108c3565b50829750879550505050505092915050565b600061091882610bec565b6109228185610c26565b9350610932818560208601610cb8565b61093b81610ceb565b840191505092915050565b600061095182610be1565b61095b8185610c15565b935061096b818560208601610cb8565b61097481610ceb565b840191505092915050565b600061098a82610be1565b6109948185610c26565b93506109a4818560208601610cb8565b6109ad81610ceb565b840191505092915050565b600060a0830160008301516109d06000860182610a35565b50602083015184820360208601526109e88282610946565b91505060408301518482036040860152610a028282610946565b9150506060830151610a17606086018261087a565b506080830151610a2a6080860182610a35565b508091505092915050565b610a3e81610c69565b82525050565b610a4d81610c69565b82525050565b6000602082019050610a686000830184610889565b92915050565b60006020820190508181036000830152610a888184610898565b905092915050565b6000602082019050610aa56000830184610a44565b92915050565b600060a082019050610ac06000830188610a44565b8181036020830152610ad2818761090d565b90508181036040830152610ae6818661090d565b9050610af56060830185610a44565b610b02608083018461086b565b9695505050505050565b600060a082019050610b216000830188610a44565b8181036020830152610b33818761097f565b90508181036040830152610b47818661097f565b9050610b566060830185610889565b610b636080830184610a44565b9695505050505050565b6000604051905081810181811067ffffffffffffffff82111715610b9057600080fd5b8060405250919050565b600067ffffffffffffffff821115610bb157600080fd5b601f19601f8301169050602081019050919050565b6000819050602082019050919050565b600081519050919050565b600081519050919050565b600081519050919050565b6000602082019050919050565b600082825260208201905092915050565b600082825260208201905092915050565b600082825260208201905092915050565b6000610c4282610c49565b9050919050565b600073ffffffffffffffffffffffffffffffffffffffff82169050919050565b6000819050919050565b6000610c7e82610c85565b9050919050565b6000610c9082610c97565b9050919050565b6000610ca282610c49565b9050919050565b82818337600083830152505050565b60005b83811015610cd6578082015181840152602081019050610cbb565b83811115610ce5576000848401525b50505050565b6000601f19601f8301169050919050565b610d0581610c69565b8114610d1057600080fd5b5056fea365627a7a7231582087139571cdbe2b8db2f2faa1ea7c6e586e3469d2c1f83a4cd1d32725cd307a676c6578706572696d656e74616cf564736f6c63430005110040",
  "source": "pragma solidity ^0.5.0;\r\npragma experimental ABIEncoderV2;\r\n\r\ncontract Registration {\r\n    struct Pet {\r\n        uint id;\r\n        string name;\r\n        string photoUrl;\r\n        address owner;\r\n        uint registrationFee;\r\n    }\r\n\r\n    Pet[] public pets;\r\n    mapping(uint => address) public petToOwner;\r\n    uint public petCount = 0;\r\n\r\n    event PetRegistered(uint id, string name, string photoUrl, uint registrationFee, address owner);\r\n\r\n    function registerPet(string memory _name, string memory _photoUrl, uint _registrationFee) public {\r\n        pets.push(Pet(petCount, _name, _photoUrl, msg.sender, _registrationFee));\r\n        petToOwner[petCount] = msg.sender;\r\n        emit PetRegistered(petCount, _name, _photoUrl, _registrationFee, msg.sender);\r\n        petCount++;\r\n    }\r\n\r\n    function getPets() public view returns (Pet[] memory) {\r\n        return pets;\r\n    }\r\n}\r\n",
  "sourcePath": "C:/Users/ch243/Desktop/pet-shop-box-master/contracts/Registration.sol",
  "compiler": {
    "name": "solc",
    "version": "0.5.17+commit.d19bba13.Emscripten.clang"
  },
  "schemaVersion": "3.0.22",
  "updatedAt": "2024-08-09T21:29:49.115Z",
  "networkType": "ethereum",
  "devdoc": {
    "methods": {}
  },
  "userdoc": {
    "methods": {}
  }
}