{
  "contractName": "Registration",
  "abi": [
    {
      "anonymous": false,
      "inputs": [
        {
          "indexed": false,
          "internalType": "uint256",
          "name": "id",
          "type": "uint256"
        },
        {
          "indexed": false,
          "internalType": "string",
          "name": "name",
          "type": "string"
        },
        {
          "indexed": false,
          "internalType": "string",
          "name": "breed",
          "type": "string"
        },
        {
          "indexed": false,
          "internalType": "string",
          "name": "photoURI",
          "type": "string"
        },
        {
          "indexed": false,
          "internalType": "address",
          "name": "owner",
          "type": "address"
        }
      ],
      "name": "PetRegistered",
      "type": "event"
    },
    {
      "inputs": [],
      "name": "petCount",
      "outputs": [
        {
          "internalType": "uint256",
          "name": "",
          "type": "uint256"
        }
      ],
      "stateMutability": "view",
      "type": "function"
    },
    {
      "inputs": [
        {
          "internalType": "uint256",
          "name": "",
          "type": "uint256"
        }
      ],
      "name": "pets",
      "outputs": [
        {
          "internalType": "uint256",
          "name": "id",
          "type": "uint256"
        },
        {
          "internalType": "string",
          "name": "name",
          "type": "string"
        },
        {
          "internalType": "string",
          "name": "breed",
          "type": "string"
        },
        {
          "internalType": "string",
          "name": "photoURI",
          "type": "string"
        },
        {
          "internalType": "address payable",
          "name": "owner",
          "type": "address"
        }
      ],
      "stateMutability": "view",
      "type": "function"
    },
    {
      "inputs": [
        {
          "internalType": "string",
          "name": "_name",
          "type": "string"
        },
        {
          "internalType": "string",
          "name": "_breed",
          "type": "string"
        },
        {
          "internalType": "string",
          "name": "_photoURI",
          "type": "string"
        }
      ],
      "name": "registerPet",
      "outputs": [],
      "stateMutability": "nonpayable",
      "type": "function"
    },
    {
      "inputs": [
        {
          "internalType": "uint256",
          "name": "petId",
          "type": "uint256"
        }
      ],
      "name": "getPet",
      "outputs": [
        {
          "components": [
            {
              "internalType": "uint256",
              "name": "id",
              "type": "uint256"
            },
            {
              "internalType": "string",
              "name": "name",
              "type": "string"
            },
            {
              "internalType": "string",
              "name": "breed",
              "type": "string"
            },
            {
              "internalType": "string",
              "name": "photoURI",
              "type": "string"
            },
            {
              "internalType": "address payable",
              "name": "owner",
              "type": "address"
            }
          ],
          "internalType": "struct Registration.Pet",
          "name": "",
          "type": "tuple"
        }
      ],
      "stateMutability": "view",
      "type": "function"
    }
  ],
  "bytecode": "0x60806040525f80553480156011575f80fd5b50610f0a8061001f5f395ff3fe608060405234801561000f575f80fd5b506004361061004a575f3560e01c80632ffbac701461004e57806359d551941461006a578063cd619f581461009a578063cfb869bf146100b8575b5f80fd5b610068600480360381019061006391906107db565b6100ec565b005b610084600480360381019061007f91906108b2565b61022a565b6040516100919190610a0c565b60405180910390f35b6100a2610463565b6040516100af9190610a3b565b60405180910390f35b6100d260048036038101906100cd91906108b2565b610468565b6040516100e3959493929190610aab565b60405180910390f35b5f808154809291906100fd90610b3e565b91905055506040518060a001604052805f5481526020018481526020018381526020018281526020013373ffffffffffffffffffffffffffffffffffffffff1681525060015f805481526020019081526020015f205f820151815f0155602082015181600101908161016f9190610d7f565b5060408201518160020190816101859190610d7f565b50606082015181600301908161019b9190610d7f565b506080820151816004015f6101000a81548173ffffffffffffffffffffffffffffffffffffffff021916908373ffffffffffffffffffffffffffffffffffffffff1602179055509050507f1260678933053ee4e274ebd74dd917f0738ecfc274a1922393b7fc0458cfbaf85f548484843360405161021d959493929190610e6e565b60405180910390a1505050565b61023261064b565b60015f8381526020019081526020015f206040518060a00160405290815f820154815260200160018201805461026790610bb2565b80601f016020809104026020016040519081016040528092919081815260200182805461029390610bb2565b80156102de5780601f106102b5576101008083540402835291602001916102de565b820191905f5260205f20905b8154815290600101906020018083116102c157829003601f168201915b505050505081526020016002820180546102f790610bb2565b80601f016020809104026020016040519081016040528092919081815260200182805461032390610bb2565b801561036e5780601f106103455761010080835404028352916020019161036e565b820191905f5260205f20905b81548152906001019060200180831161035157829003601f168201915b5050505050815260200160038201805461038790610bb2565b80601f01602080910402602001604051908101604052809291908181526020018280546103b390610bb2565b80156103fe5780601f106103d5576101008083540402835291602001916103fe565b820191905f5260205f20905b8154815290600101906020018083116103e157829003601f168201915b50505050508152602001600482015f9054906101000a900473ffffffffffffffffffffffffffffffffffffffff1673ffffffffffffffffffffffffffffffffffffffff1673ffffffffffffffffffffffffffffffffffffffff16815250509050919050565b5f5481565b6001602052805f5260405f205f91509050805f01549080600101805461048d90610bb2565b80601f01602080910402602001604051908101604052809291908181526020018280546104b990610bb2565b80156105045780601f106104db57610100808354040283529160200191610504565b820191905f5260205f20905b8154815290600101906020018083116104e757829003601f168201915b50505050509080600201805461051990610bb2565b80601f016020809104026020016040519081016040528092919081815260200182805461054590610bb2565b80156105905780601f1061056757610100808354040283529160200191610590565b820191905f5260205f20905b81548152906001019060200180831161057357829003601f168201915b5050505050908060030180546105a590610bb2565b80601f01602080910402602001604051908101604052809291908181526020018280546105d190610bb2565b801561061c5780601f106105f35761010080835404028352916020019161061c565b820191905f5260205f20905b8154815290600101906020018083116105ff57829003601f168201915b505050505090806004015f9054906101000a900473ffffffffffffffffffffffffffffffffffffffff16905085565b6040518060a001604052805f81526020016060815260200160608152602001606081526020015f73ffffffffffffffffffffffffffffffffffffffff1681525090565b5f604051905090565b5f80fd5b5f80fd5b5f80fd5b5f80fd5b5f601f19601f8301169050919050565b7f4e487b71000000000000000000000000000000000000000000000000000000005f52604160045260245ffd5b6106ed826106a7565b810181811067ffffffffffffffff8211171561070c5761070b6106b7565b5b80604052505050565b5f61071e61068e565b905061072a82826106e4565b919050565b5f67ffffffffffffffff821115610749576107486106b7565b5b610752826106a7565b9050602081019050919050565b828183375f83830152505050565b5f61077f61077a8461072f565b610715565b90508281526020810184848401111561079b5761079a6106a3565b5b6107a684828561075f565b509392505050565b5f82601f8301126107c2576107c161069f565b5b81356107d284826020860161076d565b91505092915050565b5f805f606084860312156107f2576107f1610697565b5b5f84013567ffffffffffffffff81111561080f5761080e61069b565b5b61081b868287016107ae565b935050602084013567ffffffffffffffff81111561083c5761083b61069b565b5b610848868287016107ae565b925050604084013567ffffffffffffffff8111156108695761086861069b565b5b610875868287016107ae565b9150509250925092565b5f819050919050565b6108918161087f565b811461089b575f80fd5b50565b5f813590506108ac81610888565b92915050565b5f602082840312156108c7576108c6610697565b5b5f6108d48482850161089e565b91505092915050565b6108e68161087f565b82525050565b5f81519050919050565b5f82825260208201905092915050565b8281835e5f83830152505050565b5f61091e826108ec565b61092881856108f6565b9350610938818560208601610906565b610941816106a7565b840191505092915050565b5f73ffffffffffffffffffffffffffffffffffffffff82169050919050565b5f6109758261094c565b9050919050565b6109858161096b565b82525050565b5f60a083015f8301516109a05f8601826108dd565b50602083015184820360208601526109b88282610914565b915050604083015184820360408601526109d28282610914565b915050606083015184820360608601526109ec8282610914565b9150506080830151610a01608086018261097c565b508091505092915050565b5f6020820190508181035f830152610a24818461098b565b905092915050565b610a358161087f565b82525050565b5f602082019050610a4e5f830184610a2c565b92915050565b5f82825260208201905092915050565b5f610a6e826108ec565b610a788185610a54565b9350610a88818560208601610906565b610a91816106a7565b840191505092915050565b610aa58161096b565b82525050565b5f60a082019050610abe5f830188610a2c565b8181036020830152610ad08187610a64565b90508181036040830152610ae48186610a64565b90508181036060830152610af88185610a64565b9050610b076080830184610a9c565b9695505050505050565b7f4e487b71000000000000000000000000000000000000000000000000000000005f52601160045260245ffd5b5f610b488261087f565b91507fffffffffffffffffffffffffffffffffffffffffffffffffffffffffffffffff8203610b7a57610b79610b11565b5b600182019050919050565b7f4e487b71000000000000000000000000000000000000000000000000000000005f52602260045260245ffd5b5f6002820490506001821680610bc957607f821691505b602082108103610bdc57610bdb610b85565b5b50919050565b5f819050815f5260205f209050919050565b5f6020601f8301049050919050565b5f82821b905092915050565b5f60088302610c3e7fffffffffffffffffffffffffffffffffffffffffffffffffffffffffffffffff82610c03565b610c488683610c03565b95508019841693508086168417925050509392505050565b5f819050919050565b5f610c83610c7e610c798461087f565b610c60565b61087f565b9050919050565b5f819050919050565b610c9c83610c69565b610cb0610ca882610c8a565b848454610c0f565b825550505050565b5f90565b610cc4610cb8565b610ccf818484610c93565b505050565b5b81811015610cf257610ce75f82610cbc565b600181019050610cd5565b5050565b601f821115610d3757610d0881610be2565b610d1184610bf4565b81016020851015610d20578190505b610d34610d2c85610bf4565b830182610cd4565b50505b505050565b5f82821c905092915050565b5f610d575f1984600802610d3c565b1980831691505092915050565b5f610d6f8383610d48565b9150826002028217905092915050565b610d88826108ec565b67ffffffffffffffff811115610da157610da06106b7565b5b610dab8254610bb2565b610db6828285610cf6565b5f60209050601f831160018114610de7575f8415610dd5578287015190505b610ddf8582610d64565b865550610e46565b601f198416610df586610be2565b5f5b82811015610e1c57848901518255600182019150602085019450602081019050610df7565b86831015610e395784890151610e35601f891682610d48565b8355505b6001600288020188555050505b505050505050565b5f610e588261094c565b9050919050565b610e6881610e4e565b82525050565b5f60a082019050610e815f830188610a2c565b8181036020830152610e938187610a64565b90508181036040830152610ea78186610a64565b90508181036060830152610ebb8185610a64565b9050610eca6080830184610e5f565b969550505050505056fea264697066735822122002349ff4abb4429efe3cccb65188650e8ccf864fdb31109c899da572d91e48cf64736f6c634300081a0033",
  "immutableReferences": {},
  "source": "// SPDX-License-Identifier: MIT\r\npragma solidity ^0.8.0;\r\n\r\ncontract Registration {\r\n    struct Pet {\r\n        uint id;\r\n        string name;\r\n        string breed;\r\n        string photoURI;\r\n        address payable owner;\r\n    }\r\n\r\n    uint public petCount = 0;\r\n    mapping(uint => Pet) public pets;\r\n\r\n    event PetRegistered(uint id, string name, string breed, string photoURI, address owner);\r\n\r\n    function registerPet(string memory _name, string memory _breed, string memory _photoURI) public {\r\n        petCount++;\r\n        pets[petCount] = Pet(petCount, _name, _breed, _photoURI, payable(msg.sender));\r\n\r\n        emit PetRegistered(petCount, _name, _breed, _photoURI, msg.sender);\r\n    }\r\n\r\n    function getPet(uint petId) public view returns (Pet memory) {\r\n        return pets[petId];\r\n    }\r\n}\r\n",
  "sourcePath": "C:\\Users\\ch243\\Desktop\\pet-shop-box-master\\contracts\\Registration.sol",
  "compiler": {
    "name": "solc",
    "version": "0.8.26+commit.8a97fa7a.Emscripten.clang"
  },
  "schemaVersion": "3.4.16",
  "updatedAt": "2024-08-13T08:41:22.695Z",
  "devdoc": {
    "kind": "dev",
    "methods": {},
    "version": 1
  },
  "userdoc": {
    "kind": "user",
    "methods": {},
    "version": 1
  }
}