{
  "contractName": "Spond",
  "abi": [
    {
      "constant": true,
      "inputs": [
        {
          "internalType": "uint256",
          "name": "",
          "type": "uint256"
        }
      ],
      "name": "sponsors",
      "outputs": [
        {
          "internalType": "address",
          "name": "",
          "type": "address"
        }
      ],
      "payable": false,
      "stateMutability": "view",
      "type": "function"
    },
    {
      "constant": false,
      "inputs": [
        {
          "internalType": "uint256",
          "name": "petId",
          "type": "uint256"
        }
      ],
      "name": "spond",
      "outputs": [
        {
          "internalType": "uint256",
          "name": "",
          "type": "uint256"
        }
      ],
      "payable": false,
      "stateMutability": "nonpayable",
      "type": "function"
    },
    {
      "constant": true,
      "inputs": [],
      "name": "getSponsors",
      "outputs": [
        {
          "internalType": "address[]",
          "name": "",
          "type": "address[]"
        }
      ],
      "payable": false,
      "stateMutability": "view",
      "type": "function"
    }
  ],
  "bytecode": "0x608060405234801561001057600080fd5b50610331806100206000396000f3fe608060405234801561001057600080fd5b50600436106100415760003560e01c806368b2cfc9146100465780638ce900bd1461008857806393066b4c146100e7575b600080fd5b6100726004803603602081101561005c57600080fd5b8101908080359060200190929190505050610155565b6040518082815260200191505060405180910390f35b6100906101e1565b6040518080602001828103825283818151815260200191508051906020019060200280838360005b838110156100d35780820151818401526020810190506100b8565b505050509050019250505060405180910390f35b610113600480360360208110156100fd57600080fd5b810190808035906020019092919050505061026f565b604051808273ffffffffffffffffffffffffffffffffffffffff1673ffffffffffffffffffffffffffffffffffffffff16815260200191505060405180910390f35b60008082101561016457600080fd5b6000805490508210610183576001820160008161018191906102ab565b505b336000838154811061019157fe5b9060005260206000200160006101000a81548173ffffffffffffffffffffffffffffffffffffffff021916908373ffffffffffffffffffffffffffffffffffffffff160217905550819050919050565b6060600080548060200260200160405190810160405280929190818152602001828054801561026557602002820191906000526020600020905b8160009054906101000a900473ffffffffffffffffffffffffffffffffffffffff1673ffffffffffffffffffffffffffffffffffffffff168152602001906001019080831161021b575b5050505050905090565b6000818154811061027c57fe5b906000526020600020016000915054906101000a900473ffffffffffffffffffffffffffffffffffffffff1681565b8154818355818111156102d2578183600052602060002091820191016102d191906102d7565b5b505050565b6102f991905b808211156102f55760008160009055506001016102dd565b5090565b9056fea265627a7a7231582016dbafb1492ad48e29304f1223c2fc0360f251e82921bd62093f17f6887155fa64736f6c63430005110032",
  "source": "// SPDX-License-Identifier: MIT\r\npragma solidity ^0.5.0;\r\n\r\ncontract Spond {\r\n  address[] public sponsors;\r\n\r\n  // Sponding a pet\r\n  function spond(uint petId) public returns (uint) {\r\n      require(petId >= 0);\r\n\r\n      if (petId >= sponsors.length) {\r\n        sponsors.length = petId + 1;\r\n    }\r\n  \r\n       sponsors[petId] = msg.sender;\r\n       return petId;\r\n  }\r\n\r\n  // Retrieving the sponsors\r\n   function getSponsors() public view returns (address[] memory) {\r\n       return sponsors;\r\n}\r\n\r\n}",
  "sourcePath": "C:\\Users\\ch243\\Desktop\\pet-shop-box-master\\contracts\\Spond.sol",
  "compiler": {
    "name": "solc",
    "version": "0.5.17+commit.d19bba13.Emscripten.clang"
  },
  "schemaVersion": "3.4.16",
  "updatedAt": "2024-08-22T00:43:42.067Z",
  "networkType": "ethereum",
  "devdoc": {
    "methods": {}
  },
  "userdoc": {
    "methods": {}
  }
}