{
  "contractName": "Spond",
  "abi": [
    {
      "constant": true,
      "inputs": [],
      "name": "spondAmount",
      "outputs": [
        {
          "internalType": "uint256",
          "name": "",
          "type": "uint256"
        }
      ],
      "payable": false,
      "stateMutability": "view",
      "type": "function"
    },
    {
      "constant": true,
      "inputs": [
        {
          "internalType": "uint256",
          "name": "",
          "type": "uint256"
        }
      ],
      "name": "sponsors",
      "outputs": [
        {
          "internalType": "address",
          "name": "",
          "type": "address"
        }
      ],
      "payable": false,
      "stateMutability": "view",
      "type": "function"
    },
    {
      "constant": false,
      "inputs": [
        {
          "internalType": "uint256",
          "name": "petId",
          "type": "uint256"
        }
      ],
      "name": "spond",
      "outputs": [
        {
          "internalType": "uint256",
          "name": "",
          "type": "uint256"
        }
      ],
      "payable": true,
      "stateMutability": "payable",
      "type": "function"
    },
    {
      "constant": true,
      "inputs": [],
      "name": "getSponsors",
      "outputs": [
        {
          "internalType": "address[16]",
          "name": "",
          "type": "address[16]"
        }
      ],
      "payable": false,
      "stateMutability": "view",
      "type": "function"
    }
  ],
  "bytecode": "0x608060405267016345785d8a000060105534801561001c57600080fd5b506103eb8061002c6000396000f3fe60806040526004361061003f5760003560e01c806340f24db41461004457806368b2cfc91461006f5780638ce900bd146100b157806393066b4c14610104575b600080fd5b34801561005057600080fd5b5061005961017f565b6040518082815260200191505060405180910390f35b61009b6004803603602081101561008557600080fd5b8101908080359060200190929190505050610185565b6040518082815260200191505060405180910390f35b3480156100bd57600080fd5b506100c66102b9565b6040518082601060200280838360005b838110156100f15780820151818401526020810190506100d6565b5050505090500191505060405180910390f35b34801561011057600080fd5b5061013d6004803603602081101561012757600080fd5b810190808035906020019092919050505061033a565b604051808273ffffffffffffffffffffffffffffffffffffffff1673ffffffffffffffffffffffffffffffffffffffff16815260200191505060405180910390f35b60105481565b60008082101580156101985750600f8211155b61020a576040517f08c379a000000000000000000000000000000000000000000000000000000000815260040180806020018281038252600e8152602001807f496e76616c69642070657420494400000000000000000000000000000000000081525060200191505060405180910390fd5b6010543414610264576040517f08c379a00000000000000000000000000000000000000000000000000000000081526004018080602001828103825260268152602001806103916026913960400191505060405180910390fd5b336000836010811061027257fe5b0160006101000a81548173ffffffffffffffffffffffffffffffffffffffff021916908373ffffffffffffffffffffffffffffffffffffffff160217905550819050919050565b6102c161036d565b6000601080602002604051908101604052809291908260108015610330576020028201915b8160009054906101000a900473ffffffffffffffffffffffffffffffffffffffff1673ffffffffffffffffffffffffffffffffffffffff16815260200190600101908083116102e6575b5050505050905090565b6000816010811061034757fe5b016000915054906101000a900473ffffffffffffffffffffffffffffffffffffffff1681565b60405180610200016040528060109060208202803883398082019150509050509056fe496e636f72726563742045544820616d6f756e742073656e7420666f722073706f6e64696e67a265627a7a72315820bf420fe1feef73e81647e50271384d4a5f240f9ba84dc57f1d46b07f9bd9969064736f6c63430005110032",
  "source": "// SPDX-License-Identifier: MIT\r\npragma solidity ^0.5.0;\r\n\r\ncontract Spond {\r\n  address[16] public sponsors;\r\n  uint public spondAmount = 0.1 ether; // Fixed amount to spond a pet\r\n\r\n  // Sponding a pet\r\n  function spond(uint petId) public payable returns (uint) {\r\n      require(petId >= 0 && petId <= 15, \"Invalid pet ID\");\r\n      require(msg.value == spondAmount, \"Incorrect ETH amount sent for sponding\");\r\n\r\n       sponsors[petId] = msg.sender;\r\n       return petId;\r\n  }\r\n\r\n  // Retrieving the sponsors\r\n   function getSponsors() public view returns (address[16] memory) {\r\n       return sponsors;\r\n}\r\n\r\n}",
  "sourcePath": "C:\\Users\\ch243\\Desktop\\pet-shop-box-master\\contracts\\Spond.sol",
  "compiler": {
    "name": "solc",
    "version": "0.5.17+commit.d19bba13.Emscripten.clang"
  },
  "schemaVersion": "3.4.16",
  "updatedAt": "2024-08-20T07:56:22.190Z",
  "devdoc": {
    "methods": {}
  },
  "userdoc": {
    "methods": {}
  }
}